{
  "transactions": [
    {
      "hash": "0xf931e71456343efc94842ea9685feb6edc6d9a24a55eec3513114df457131cad",
      "transactionType": "CALL",
      "contractName": null,
      "contractAddress": "0xb466731c2b650d85e5055f0d0e516e7366a6495d",
      "function": "mintNft(string)",
      "arguments": [
        "https://gateway.pinata.cloud/ipfs/QmYnhBp5nXYBGeLVTnYccoaLG5ifcXhLTXE5JzgcCNz8Gx"
      ],
      "transaction": {
        "from": "0x428176e2cfb7c829928871b91ff7d9e43e1d4d75",
        "to": "0xb466731c2b650d85e5055f0d0e516e7366a6495d",
        "gas": "0x40f58",
        "value": "0x0",
        "input": "0xda86f4a90000000000000000000000000000000000000000000000000000000000000020000000000000000000000000000000000000000000000000000000000000005068747470733a2f2f676174657761792e70696e6174612e636c6f75642f697066732f516d596e684270356e58594247654c56546e5963636f614c473569666358684c545845354a7a6763434e7a38477800000000000000000000000000000000",
        "nonce": "0x11",
        "chainId": "0xaa36a7"
      },
      "additionalContracts": [],
      "isFixedGasLimit": false
    }
  ],
  "receipts": [
    {
      "status": "0x1",
      "cumulativeGasUsed": "0xb9d0dc",
      "logs": [
        {
          "address": "0xb466731c2b650d85e5055f0d0e516e7366a6495d",
          "topics": [
            "0xddf252ad1be2c89b69c2b068fc378daa952ba7f163c4a11628f55a4df523b3ef",
            "0x0000000000000000000000000000000000000000000000000000000000000000",
            "0x000000000000000000000000428176e2cfb7c829928871b91ff7d9e43e1d4d75",
            "0x0000000000000000000000000000000000000000000000000000000000000000"
          ],
          "data": "0x",
          "blockHash": "0x022bca661fbd80ce3daa4ba8d854847f32b734159903f802ad447725ccf7c298",
          "blockNumber": "0x646f6d",
          "transactionHash": "0xf931e71456343efc94842ea9685feb6edc6d9a24a55eec3513114df457131cad",
          "transactionIndex": "0x3b",
          "logIndex": "0x9d",
          "removed": false
        }
      ],
      "logsBloom": "0x00040000080000000000000800000000000000000000000001000000000000000000000000000000001000000000000000000000000000000000000000000000000000000000000000000008000000000000000000000000000000000000000000000000020000000000000000000800000000000000000000000010000000000000000000000000000000000000000000000000000000000000000000000000000000000000000000000000000000000000000000000000000000000000000000000002000000000000100000000000000000000000000000000000000020000000000000000000000000000000000000000000000000000000000000000000",
      "type": "0x2",
      "transactionHash": "0xf931e71456343efc94842ea9685feb6edc6d9a24a55eec3513114df457131cad",
      "transactionIndex": "0x3b",
      "blockHash": "0x022bca661fbd80ce3daa4ba8d854847f32b734159903f802ad447725ccf7c298",
      "blockNumber": "0x646f6d",
      "gasUsed": "0x2c6aa",
      "effectiveGasPrice": "0x5227efa39",
      "from": "0x428176e2cfb7c829928871b91ff7d9e43e1d4d75",
      "to": "0xb466731c2b650d85e5055f0d0e516e7366a6495d",
      "contractAddress": null
    }
  ],
  "libraries": [],
  "pending": [],
  "returns": {},
  "timestamp": 1724773828,
  "chain": 11155111,
  "commit": "2a20395"
}